S01500007261696C746573745F65667233322E73333776
S214000000007C002079920000A5920000A5920000D6
S214000010A5920000A5920000A5920000A5920000FF
S214000020A5920000A5920000A5920000A5920000EF
S214000030A5920000A5920000A5920000A5920000DF
S2140000400168000035090100A5920000BD0401000A
S214000050A1090100410901005909010039090100FF
S214000060AD6300008164000005680000A18B0000FD
S214000070A5920000A5920000A5920000A59200009F
S214000080A5920000A5640000A5920000A5920000BD
S214000090A5920000A5920000A5920000A59200007F
S2140000A0A5920000A5920000A5920000A5090100F7
S2140000B03D09010035660000E5090100A592000033
S2140000C0FDC30000A592000010B5054C237833B997
S2140000D0044B13B10448AFF300800123237010BD16
S2140000E0A812002000000000A0B8010008B5034BCD
S2140000F01BB103490348AFF3008008BD00000000B1
S214000100AC120020A0B80100154B002B08BF134B03
S2140001109D46A3F5803A00218B460F461348144AA5
S214000120121A11F0DEFA0F4B002B00D098470E4B38
S214000130002B00D098470020002104000D000D4839
S214000140002802D00C48AFF3008011F073FA2000AC
S214000150290004F0D5FF11F047FA00BF00000800A0
S214000160007C00200000000000000000A812002014
S2140001706C440020000000000000000070B5012064
S2140001808EB00C46096805F007FE002843D0404AAA
S2140001901068516804AB03C3906818604FF47A7215
S2140001A0ADF8222040F20222ADF82420ADF8262039
S2140001B004AA07CA0AAE86E80700666835490B2215
S2140001C0002301258DF834203046042207938DF84D
S2140001D020508DF835308DF8363011F04FFA70B962
S2140001E08DF824508DF82650A06806F0C1F843F22A
S2140001F0C82580B2A84210D9274A212108E0022249
S2140002002649304611F03AFA0028EDD0244A20213B
S214000210206809F063F90EB070BDADF82C00ADF89B
S2140002202800E06806F0A4F880B2A84202D91D4A69
S2140002302221EDE7ADF82E000A38ADF82A00206935
S21400024006F096F8184BADF8220007A918680AF0D1
S2140002500DFC014608B1154ADAE79DF82600246829
S21400026005F08EFD05469DF8240005F089FDBDF8D5
S21400027022300393BDF82E300293BDF82C300C4A82
S2140002800C49CDE900032B46204609F0E8F8C2E702
S21400029058330100D7330100FC330100275A010010
S2140002A0DC33010011340100BC4300202B34010074
S2140002B03F9101005A34010038B505460C4601202E
S2140002C0096805F069FDE8B1012D0F4D16DD60687F
S2140002D006F04EF890B128680AF0FDFB054610B906
S2140002E00B2004F00DFA094B094A20680949002D35
S2140002F008BF1A46BDE8384009F0B1B828680AF0C9
S214000300E7FBEBE738BD00BFBC4300203F91010090
S214000310643301006D33010038B501200C460968CE
S21400032005F03AFD90B10A4B18680AF0D7FB05466F
S214000330802004F0E5F9074B074A20680749002D9E
S21400034008BF1A46BDE8384009F089B838BD00BF76
S214000350BC4300203F910100643301006D3301006F
S21400036038B501200C46096805F016FD90B10A4B19
S21400037018680AF0B6FB0546E02004F0C1F9074B02
S214000380074A20680749002D08BF1A46BDE83840CE
S21400039009F065B838BD00BFBC4300203F9101009E
S2140003A0643301006D3301002DE9F34148680C46C3
S2140003B005F0DEFF0646A06805F0DAFF0746E068AF
S2140003C005F0D6FF0546206905F0D2FF002E8046D0
S2140003D00CBF002108210FB141F004010DB141F01E
S2140003E00201B8F1000F01D041F00101134B18686B
S2140003F00AF0B2FB38B1124A2068232102B0BDE8E9
S214000400F04109F06BB80F490F4A2068B8F1000FA9
S21400041014BF0B461346002D14BF0D461546CDE9F6
S2140004200053002F14BF0B461346002E18BF0A4673
S214000430064909F014F802B0BDE8F081BC4300207C
S214000440793301003F910100643301009F330100BE
S21400045038B548680C4605F08BFF0D4B011C054669
S21400046018BF012118680AF067FB30B12068094AF6
S2140004702421BDE8384009F031B8074B074A206808
S2140004800749002D08BF1A46BDE8384008F0E7BF08
S214000490BC4300202A350100643301003F9101006F
S2140004A04E35010038B548680C4605F061FF0D4B27
S2140004B0011C054618BF012118680AF02DFB30B153
S2140004C02068094A2421BDE8384009F007B8074BE0
S2140004D0074A20680749002D08BF1A46BDE838407D
S2140004E008F0BDBFBC430020E434010064330100C3
S2140004F03F9101000735010070B5064648680C4676
S21400050005F036FF022E85B212DDA06805F030FF3A
S214000510C2B2084B294618680AF0E9FA246801F0C6
S214000520F9FB054902462046BDE8704008F097BF33
S2140005300022EEE7BC4300201935010070B50646E0
S21400054048680C4605F014FF022E85B212DDA0683E
S21400055005F00EFFC2B2084B294618680AF0CEFA1C
S214000560246801F0D7FB054902462046BDE87040E6
S21400057008F075BF0022EEE7BC430020613501009D
S214000580F7B507460D460E46002456F8040F05F04C
S214000590EFFE0DF804000134082CF6D1092F12DD09
S2140005A0686A05F0E5FEC2B2084B694618680AF0AC
S2140005B0ACFA2C6801F0AEFB05490246204608F06E
S2140005C04EFF03B0F0BD0022EEE700BFBC430020A4
S2140005D0CD3401002DE9F0478AB0894680461822BE
S2140005E0002104A811F07DF84FF0FF33CDE9013368
S2140005F001AE03934D460DF1020734464FF0010A53
S214000600D04533DD686805F0B3FE0AF1010398456E
S21400061027F8020F2ADDA86805F0AAFE0AF10203F1
S2140006209845F88022DD0022114655F80C0F11F08F
S21400063035FCA31BC3F1200CA3F12002D84001FA1D
S2140006400CFC40EA0C0021FA02F210430AF1030AFD
S214000650C0B2BAF10A0F20736073A073E0732074FF
S2140006606074A074E07404F10804C9D1084B3146E4
S21400067018680AF039FAD9F8004001F04BFB054932
S2140006800246204608F0EBFE0AB0BDE8F08700BF41
S214000690BC430020B8340100084B10B518680C465F
S2140006A009F05AFF064A074B0749002808BF1A46B2
S2140006B02068BDE8104008F0D2BE00BFBC43002052
S2140006C03F910100643301009B35010010B5486876
S2140006D00C4605F04DFE064B011C18BF012118689C
S2140006E009F034FF21460120BDE81040FFF7D4BFD3
S2140006F0BC4300202DE9F04F0B4687B02749186809
S214000700274DDFF8B49008F08BFE4FF00008474600
S2140007104FEA471B00262B78002B38D00024A24631
S214000720204B0DE0204A05935244194609EB04007D
S21400073012F80B2011F050F9059B05340AF1010A56
S2140007402A785245EEDC1CB14C44002304F8013CE8
S214000750164A1748297815F8023C32440BF1080B64
S21400076012F80840134A0091002C08BF0246CDE953
S2140007700192394632460948013608F02BFE042E0F
S214000780C9D108F10408013527B90127C0E789F85F
S2140007900030DDE707B0BDE8F08F00BFAF350100E1
S2140007A03E130020E8350100FC120020C412002091
S2140007B0643301003F910100CC1200202DE9F8437C
S2140007C0402204460F461D481D4E002110F089FFAA
S2140007D01C4B00221A605A60786805F0C9FD052C8B
S2140007E07060D4BF023C042407F104090025A5422A
S2140007F00BDB154B1249186809F0ABFEB8B9394641
S2140008000120BDE8F843FFF775BFEB074FEA650820
S21400081059F8040F05D405F0ABFD06F808000135BD
S214000820E5E705F0A5FDB04488F80200F7E738686C
S214000830064A3021BDE8F84308F050BEFC120020FE
S2140008403C130020C4120020BC4300205036010098
S2140008502DE9FF41804648680C4605F089FDC7B281
S214000860A06805F085FD012F02D8C5B2032D07D973
S2140008701D4A3121206808F031FE04B0BDE8F08141
S214000880B8F10B0F02DD194A3221F3E70023CDE958
S2140008900233032646450FDB154B1648BE0033448D
S2140008A02A465B5D0093394602AB006809F042FEBB
S2140008B060B1114A3321DDE754F8260005F058FDF3
S2140008C002AB3344013603F8030CE3E70B4A02ABF2
S2140008D003CB354402EBC50642F8350071600120B3
S2140008E02146FFF707FFC8E7F0350100153601007F
S2140008F0C4120020BC43002033360100FC12002046
S2140009002DE9FF4148680E4605F032FD0446B06802
S21400091005F02EFD0546F06805F02AFDC7B217F172
S2140009200008184818BF4FF00108EDB2E4B22B4695
S21400093022464146006809F006FE38B1124A306881
S214000940342104B0BDE8F04108F0C8BD0F4B306854
S2140009500F4E03EB840303F805800E4B1A5D234409
S21400096099780D4B0092002F08BF334603930B4B2C
S2140009702246CDE901132B46094908F070FD04B064
S214000980BDE8F081BC43002079350100C412002088
S214000990643301003C1300203F910100CC1200207C
S2140009A0AF350100F0B50126354C89B00D4630460E
S2140009B00968267005F0F0F930B36F6831490422F3
S2140009C0384610F05BFE80B92671A6710023A86831
S2140009D00793CDE9053305F0CBFC43F2C82680B279
S2140009E0B04213D9284A21210BE002222749384673
S2140009F010F044FE18B902232371A371E6E7244AD7
S214000A002021286808F06AFD09B0F0BDADF818008E
S214000A10ADF81400E86805F0ABFC80B2B04202D92D
S214000A201C4A2221EDE7ADF81A000A38ADF8160088
S214000A302869194E05F09CFC05A96080306809F00D
S214000A40E9F90F49306809F0F5FC014608B1134A88
S214000A50D7E720792D6805F093F90646A07905F0CA
S214000A608FF963880293BDF81A300193BDF81830E9
S214000A700093324603460A49284608F0F0FCC3E7CE
S214000A8044130020D7330100FC330100275A01002D
S214000A90DC33010011340100BC430020793601002C
S214000AA066340100F7B5114C20680F4609F0C5FC06
S214000AB00546206809F0D4FC0646206809F0D6FCF6
S214000AC00B490C4B3C680C4A002814BF18460846D5
S214000AD0002E08BF0B4609490090002D08BF0A46A5
S214000AE02046074908F0BBFC03B0F0BDBC4300201D
S214000AF0C5360100BE3601003F9101006433010097
S214000B00CE36010013B500238DF80030ADF8023064
S214000B1040F20113ADF80430ADF80630084B0C4631
S214000B201868694609F086FC014618B1054A20682F
S214000B3008F0D4FC21460120FFF7B4FF02B010BD38
S214000B40BC430020A636010070B548680C4605F088
S214000B500FFC0646A06805F00BFCF1B20A4E003109
S214000B60054618BF0121306809F077FCE9B200316C
S214000B70306818BF012109F076FC21460120BDE847
S214000B807040FFF78FBF00BFBC43002070B54868B9
S214000B900C4605F0EDFBC5B2A06805F0E9FB291C84
S214000BA00C4AC3B218BF01211170191C0A4A2068EA
S214000BB018BF012111700949094A002B14BF1346BA
S214000BC00B46002D08BF0A460649BDE8704008F0EF
S214000BD046BC00BF7C1F00207D1F00203A5101004C
S214000BE091510100FF360100084B10B518680C46FD
S214000BF009F0EEFF064A074B0749002808BF1A46C9
S214000C002068BDE8104008F02ABC00BFBC430020A6
S214000C103F91010064330100E537010038B54868AC
S214000C200C4605F0A5FB21680546012005F0B4F842
S214000C3068B1074B18683DB109F0B2FF21460120A4
S214000C40BDE83840FFF7D0BF09F0BFFFF6E738BD74
S214000C50BC430020022838B50C4619D1486805F078
S214000C6087FB051C18BF01252168012005F094F8B4
S214000C7098B10A4B18686DB109F0BEFF246801F000
S214000C8049F8074902462046BDE8384008F0E7BB69
S214000C900025E9E709F0C3FFF0E738BDBC430020B4
S214000CA0DE350100022838B50C4619D1486805F033
S214000CB05FFB051C18BF01252168012005F06CF8B4
S214000CC098B10A4B18686DB109F0BCFF246801F0B2
S214000CD021F8074902462046BDE8384008F0BFBB69
S214000CE00025E9E709F0C1FFF0E738BDBC43002066
S214000CF0DE35010038B501200C46096805F04CF8D1
S214000D00E0B10F4D286809F063FF30B920680D4A3E
S214000D103121BDE8384008F0E1BB606805F028FBEB
S214000D20C1B2286809F0B6FF246800F0F3FF064950
S214000D3002462046BDE8384008F091BB38BD00BFEB
S214000D40BC430020D0370100DE3501002DE9F34713
S214000D50294D814628680C4609F03AFFA84638B95E
S214000D60264A3121206802B0BDE8F04708F0B6BB3D
S214000D70B9F1010F35DD606805F0FAFAB9F1020F36
S214000D805FFA80FA2FD0A06805F0F2FAB9F1030FE7
S214000D9007462CD0E06805F0EBFAB9F1040F0646DA
S214000DA023D0206905F0E4FA051C18BF012500953C
S214000DB053463A463146D8F8000009F097FFC0B9C6
S214000DC00F4B104A20681049002D14BF1D461546CB
S214000DD0CDE900653B46524608F041FB02B0BDE84F
S214000DE0F0874FF0250A094E094F0025DFE7074E2A
S214000DF0FBE7084A3221B5E7BC430020D0370100A4
S214000E00643301003F9101006937010055555500D4
S214000E10D6BE898EAE37010073B54868234E0D46A0
S214000E2005F0A6FA0446306809F0D2FE38B9204A22
S214000E303121286802B0BDE8704008F04FBBE4B22C
S214000E40A4F12503022B02D91A4A3021F1E7002328
S214000E500093194A19493068234609F047FF10B134
S214000E60174A3221E5E7252C1AD103F049FC224621
S214000E701449286808F0F3FA134B144A03F11C01CE
S214000E8053F8040B42F8040B8B42F9D1104B1C228A
S214000E90294601201A8002B0BDE8704001F08EBAE3
S214000EA0262C0CBF0C202720DFE700BFBC43002009
S214000EB0D03701001B370100D6BE898E5555550028
S214000EC0AE370100373701004D370100500E0020C5
S214000ED0481000202DE9F74FDFF8D48081460D46F4
S214000EE001244FF0000A26B2B9EB860F17DC284B18
S214000EF028491868013C8C7109F042FB264B274AAA
S214000F002D68274900280CBF184610460090254B30
S214000F102246284608F0A3FA03B0BDE8F08F360153
S214000F20A6F10C07E85905F023FAB0F5803F07D381
S214000F301D4A1621286803B0BDE8F04F08F0CEBA67
S214000F40E85905F015FA631E1B01A6F1080B28F8F0
S214000F50030055F80B0008EB030705F009FAB87014
S214000F6055F80B0005F004FA032802D90F4A17219A
S214000F70E0E7AB19013453F8040C05F0F9F9786092
S214000F80A85905F0F5F9E4B2B86087F80CA0AAE70E
S214000F90BC43002000000020915101003A5101009E
S214000FA044380100A03C0020EC3701000C3801005A
S214000FB0603C002070B5064648680C4605F0D8F937
S214000FC0051C18BF0125022E15DDA06805F0D0F916
S214000FD0021C18BF0122094B2946186809F0D2FAEC
S214000FE0074A084B0849002818BF1A462068BDE87B
S214000FF0704008F034BA0022EDE700BFBC43002082
S214001000915101003A5101006438010007B5084BC0
S214001010CDE900230B4602460649074808F01FFAAA
S214001020064A136801200133136003B05DF804FB21
S214001030E638010084380100D8380100E0180020A6
S21400104070B548680C4605F093F9216805460120FE
S21400105004F0A2FE00B3114E306809F065F8C3072D
S21400106013D52946306808F06FFE30B92A46206846
S2140010700B49BDE8704008F0F2B92B462068094AD3
S2140010801421BDE8704008F029BA2068064A1321EA
S214001090BDE8704008F022BA70BD00BFBC43002017
S2140010A09F3B0100AF3B0100E83B010030B1044B21
S2140010B010F0010F034808BF1846704702487047F3
S2140010C0DA5B0100F63901006433010070B5486848
S2140010D00C4605F04DF90C4B05460146186809F01C
S2140010E01BF848B92846FFF7E1FF08490246206882
S2140010F0BDE8704008F0B3B92B462068044A1521B5
S214001100BDE8704008F0EAB9BC430020523A01003E
S2140011105F3A010070B5054648680E4605F028F9A6
S214001120022D04460DDDB06805F022F90546A3073A
S214001130306808D023460C4AFF21BDE8704008F00E
S214001140CDB90125F3E70949084E08F069F904EB23
S2140011508505AC4200D170BD22682146304608F0B5
S21400116039F90434F5E700BF353901005939010073
S2140011702DE9FF41804648680D4605F0F9F810F065
S214001180030406460FD12F1DA31C984514DC01AEA0
S21400119022460D49304610F01FFCAE60294603205B
S2140011A0FFF7B8FF05E00346084A2868FF2108F065
S2140011B095F904B0BDE8F08157F8040F05F0D8F8AB
S2140011C046F824000134DFE70C44010035390100FD
S2140011D010B548680C4605F0CBF8011C226818BF0D
S2140011E001210920BDE8104004F0F6B870B50546A8
S2140011F048680C4605F0BCF8061C18BF0126022DF0
S214001200074D0ADDA06805F0B3F82860226831466D
S2140012100820BDE8704004F0DFB8024B2B60F5E70D
S2140012200C0000208096980010B548680C4605F023
S2140012309FF8084B084900280CBF012200221A70AC
S214001240064B074A206808BF1A46BDE8104008F05B
S21400125006B900BF94210020423A01006433010021
S2140012603F91010038B548680D4C0D4605F084F8EE
S214001270011C206018BF01212A680A2004F0ACF87F
S2140012802368002B0ADD04F0A1F80A2806D1054BD6
S21400129001221A60BDE8384003F04ABA38BD00BFE4
S2140012A04C0E0020A021002010B4094B08681C78C2
S2140012B00849094B14F0010F14BF0A461A4614F0E9
S2140012C0020F18BF0B465DF8044B044908F0C7B878
S2140012D0010B00203F910100643301001539010025
S2140012E038B548680D4605F043F80B4A04461378AF
S2140012F058B143F00103294601201370FFF7D4FFCD
S21400130034B1BDE8384002F0B9BF03F0FE03F2E79F
S214001310BDE8384002F062BF010B002010B54868F7
S2140013200C4605F025F8074A137840B143F002034F
S214001330137021460120BDE81040FFF7B5BF03F04B
S214001340FD03F5E7010B002008B502F077FEBFF3BA
S2140013504F8F0549054BCA6802F4E0621343CB6021
S214001360BFF34F8F00BFFDE700ED00E00400FA0575
S21400137070B5084C0D68206808F046FD06462068E3
S21400138008F045FD3246034603492846BDE870404E
S21400139008F065B8BC430020093A01002DE9F14F7A
S2140013A0044648680E4604F0E3FF022C804685B2E9
S2140013B012DDB06804F0DCFF041C18BF0124B5F58C
S2140013C0806F0BD9214A30684FF48063102101B03A
S2140013D0BDE8F04F08F082B80024F0E71C4B1D492A
S2140013E018682A4608F007FC8542074604D01A4AC1
S2140013F03068112108F072F81CBBDFF85890DFF84F
S2140014005CA0DFF864B025461FFA88F3A3420DDD22
S214001410C5F5C9710AEB0500023519F804305A46BD
S214001420ADB210F0A5FAB5F5C97F08D10B4B0C4943
S2140014303A46306801B0BDE8F04F08F010B8013405
S214001440E2E7044B07493A46F3E700BF8339010059
S214001450BC4300204C130020AD3901004C1700207F
S214001460CB390100DD390100705301002DE9F04F42
S21400147089B0824604A80C4607F006FB804605A8FD
S21400148007F00AFBBAF1010F0746DDF8149013DDEA
S214001490D4F804B07349584610F0BEFA60B100267E
S2140014A03546B14535D1002D41D16F4A5B465021B6
S2140014B0206808F013F817E021686C48049D6C4E0D
S2140014C0DFF8E4A110F016F96A4810F013F90024CA
S2140014D0A1450CD16848694E10F094F9684810F0A0
S2140014E091F90024A5420DD109B0BDE8F08F14B1E2
S2140014F0304610F0FFF857F83410504610F0FAF85F
S2140015000134E5E758F83410304610F0F3F80134AB
S214001510E8E707EBC60357F836000393594610F082
S2140015207BFA039B0136002808BF1D46B9E7D4F8AE
S2140015300890544E4946304610F06EFA074660BB97
S214001540BAF1040F05D0504A5121206807F0C6FFB3
S214001550CAE77721E06804F013FF0028F3D0E068BC
S21400156006968DF81C7004F003FFADF81E0006AE5C
S2140015700121464805F0DAF900231A46E979A879E8
S21400158006F0A8F9002F51D0287907F08DFA2A68BE
S2140015903F49206807F063FFA6E73E4E49463046BF
S2140015A010F03AFA074600BBBAF1050F02D03A4AE5
S2140015B05321CAE77521E06804F0E2FE0028F6D061
S2140015C07521206904F0DCFE0028F0D00123E068D5
S2140015D08DF81C30069604F0CBFE8DF81F002069AF
S2140015E004F0C6FE8DF81E00C1E749462B4810F0F1
S2140015F013FAB0B10027DDF810B03E46BB4504D163
S21400160096B94B46264A542152E758F837004946C1
S21400161010F002FA08EBC70A002808BF5646013742
S214001620ECE701270646A3E70027A1E7002E3FF4D4
S2140016305BAF33794BB1B779EB79AA7969792879B9
S2140016400197F779009707F037FAE979A879002328
S214001650042206F03FF933682A681249206807F02A
S214001660FEFE41E77C3A0100F33A0100813A0100B0
S214001670A53A01009E3A0100A83A0100ED3A0100A1
S214001680B33A01002B3B01000E3B010000250A0087
S2140016907C3B0100533B0100363B01008A3B0100C6
S2140016A05E3B01008E3B01007991010038B5486829
S2140016B00D4604F05DFE064904460246286807F01B
S2140016C0CEFE044B21461868BDE8384002F046BFFF
S2140016D002390100BC43002010B548680C4604F0EF
S2140016E047FE044B0449186002462068BDE81040D7
S2140016F007F0B5BE38210020EB38010010B5486869
S2140017000C4604F035FE084B0849002814BF012299
S21400171000221A70064B074A206808BF1A46BDE822
S214001720104007F09CBE00BF76210020333A01002F
S2140017303A5101009151010010B548680C4604F07A
S21400174017FE084B0849002814BF012200221A7011
S214001750064B074A206808BF1A46BDE8104007F047
S2140017607EBE00BF75210020223A01003A510100DA
S2140017709151010010B50C6803F028FE034902469B
S2140017802046BDE8104007F06ABE00BF0A390100D7
S214001790074B10B518680C6808F020FA04F0F0FA49
S2140017A0044902462046BDE8104007F058BE00BF78
S2140017B0BC430020753901002DE9F34748680D4603
S2140017C004F0D6FD8046A86804F0D2FD10F10009AA
S2140017D00746E86818BF4FF0010904F0C9FD10F18C
S2140017E0000A0446286918BF4FF0010A04F0C0FD3D
S2140017F02B492C4A91F800C02B4B0646003018BFE8
S2140018000120BCF1000F07D192F800C0D44503D1E7
S21400181093F800C0844517D04FF0000C81F800C044
S21400182082F800A01870002C33D0204B1A78204B7A
S21400183053F822301A681F481F4B20490068002EB4
S21400184008BF002308F0A6FA17B11D4B00221A6045
S21400185008F0A5FE4A4607464146184808F0A6FA8C
S214001860044608F09CFE042C96BF164A164A52F808
S21400187024200346DB1B28686EB1114909680091D5
S214001880124907F0ECFD0CB90D4B1C6002B0BDE828
S214001890F0872246CFE70E4907F0E1FDF3E700BFE9
S2140018A010000020E5180020E418002098200020F2
S2140018B064100020BC4300200D1000009C20002077
S2140018C0E0180020703801005B3C01006B3C010012
S2140018D0A03C01002DE9F041074648680D4604F09B
S2140018E047FD0646A86804F043FD311C044618BFB1
S2140018F001212A680C2004F0C1F988B1294638462F
S21400190000F04CFC074B1E60074B610819603EB1A7
S2140019100648074B00680122BDE8F04108F094B97C
S214001920BDE8F081E4420020E0420020BC430020F5
S214001930A54400000B6807EE900A0133012B0B60EC
S214001940B8EEE77A06D10023C1E9010081ED037AFB
S2140019500B617047D1ED035A4A688242D4BF4A6091
S214001960486007EE903A37EE656AF8EE677A8A685E
S2140019708242ACBF8A608860C6EE276A76EEA57A99
S21400198037EE677AC1ED037AD1ED047AE7EE067A90
S214001990C1ED047A704700002DE9F041294C2DED89
S2140019A0028BD4ED217AB5EE008A67EE887A90B085
S2140019B0884617EE902A00230A2104A807F0BEFDE9
S2140019C0D4ED1F7AF8EEE77A07AD67EE887A022341
S2140019D017EE902A0A21284607F0B0FDD4ED207AAB
S2140019E0F8EEE77A0AAE67EE887A022317EE902AB8
S2140019F00A21304607F0A2FDA36FD4ED226A013B10
S214001A0007EE903AF8EE677A0DAF86EEA77A0023D7
S214001A100A213846DFED0C7A67EE277A17EE902A11
S214001A2007F08CFDCDE90167009504AB226D0749F0
S214001A30D8F8000007F013FD10B0BDEC028BBDE82F
S214001A40F08100BFAC2000200000803DB43D0100C6
S214001A50064B0022C3E90122DA60054A411E914284
S214001A6088BF6FF060401860704700BFEC18002019
S214001A70FEFFFF1F38B51B4C012220680D4611469D
S214001A8008F0AEF801221146206808F02EFD16492F
S214001A90206800230B704B7001238B70CB7008F00E
S214001AA0E8FC014618B1114A286807F017FD6421C2
S214001AB0206808F00BFD0021206808F077FB002165
S214001AC0206808F04FFD686804F052FC084B044696
S214001AD01860FFF7BDFF224628680649BDE8384073
S214001AE007F0BDBCBC43002077210020C23C0100AB
S214001AF0E8180020E33C010070B5064648680C462E
S214001B0004F036FC011C054618BF012122680D2092
S214001B1004F0B4F810B321463046114C00F03EFBFA
S214001B2001221146206808F05BF801221146206861
S214001B3008F0DBFC95B10021206808F013FD094B86
S214001B401868FFF785FF084B206801221A70074BBC
S214001B5000221988BDE8704008F0E4B870BD00BFE8
S214001B60BC430020E8180020FC180020801F00203E
S214001B702DE9F04F8BB00E4605F0FAFA314BD3E95B
S214001B800045D3F808A093F90C7005F0F5FA002C80
S214001B9037D028460FF0C6F88046204689460FF014
S214001BA0C1F802460B46404649460FF05FFA00224F
S214001BB0254B0FF031F90FF041FB834625B3504615
S214001BC00FF0B0F88046E80089460FF0ABF8024602
S214001BD00B46404649460FF049FA00221A4B0FF0D2
S214001BE01BF90FF02BFB8046184B9B6BE40073B180
S214001BF03B4622461649306807F031FC0BB0BDE87C
S214001C00F08F4FF0000BD9E74FF00008ECE70DF12E
S214001C1010095A4602230DF11C0B0A21484607F00C
S214001C208DFC424602230A21584607F087FCCDE980
S214001C3002ABCDE90097EB0022460649306807F074
S214001C400EFCDBE7EC18002000005940AC2000201A
S214001C50EF3C0100613D010003282DE9F0410D46EF
S214001C6005DC28492868BDE8F04107F0F8BB4A685B
S214001C701478A3B2A3F1610105291CD8613CE4B233
S214001C8054B3012C2AD0022C2BD0032C2CD0052C9C
S214001C900CBFFF260026A86804F06AFBC7B246FA07
S214001CA007F3DB0723D433466A6828681649BDE87D
S214001CB0F04107F0D4BBA3F14101052901D8413C0E
S214001CC0DDE7303B052B01D8303CD8E728680F49C4
S214001CD0BDE8F04107F0C3BB3F26DCE74FF478468B
S214001CE0D9E74FF47C66D6E74FF47E46D3E7E8683C
S214001CF004F03EFB3946C3B20422204605F0EAFD56
S214001D000349AFE7F53D01002C3E01000E3E010001
S214001D10A23E010003289ABF024B53F82000024857
S214001D20704700BFB43E01004C4101002DE9F04170
S214001D302E4C0868DFF8D0802D4F8AB007F062FB83
S214001D40636D0993E36C0893A36C0793A36A0693E9
S214001D50636A0593E3690493A36903936369029333
S214001D6023690193E368216800932248D4E901239C
S214001D7007F08FFB204B186807F030FF054603F08E
S214001D80FFFF01461D4807F084FB002605F0010210
S214001D9058F826103846013607F07BFB032E4FEA2C
S214001DA05505F3D1164B1D8803F010FB03F046FBD8
S214001DB0E36D0993236E0893A36D0793236A069336
S214001DC0636C0593236C0493E36B0393A36B0293FA
S214001DD0636B0193236F00930246E36E094829461E
S214001DE007F069FB0AB0BDE8F08100BFAC20002018
S214001DF09E400100CE3F0100BC43002093400100FE
S214001E00801F0020A4400100140000202DE9F041AE
S214001E10144C88B020680D4608F061FB0646206822
S214001E2008F060FB074620682D6808F052FB8046E5
S214001E30206808F051FB0C49CB6906938B69059323
S214001E408B6B04938B6E03934B6ECDF80080CDE9BD
S214001E50010332463B460549284607F000FB08B01A
S214001E60BDE8F081BC430020AC200020C43E010049
S214001E7070B58AB00C4607A8002108F039F90C4D59
S214001E809DF825600B4920689DF820209DF822408B
S214001E909DF821300094002E08BF2946CDE9034165
S214001EA0CDE90123044907F0DAFA0AB070BD00BF95
S214001EB03A510100915101005441010038B50A4BD6
S214001EC048681D680C4604F053FAC1B2284607F06D
S214001ED081FF064B064A0749002808BF1A462068B5
S214001EE0BDE8384007F0BBBABC430020F74101000C
S214001EF0F1410100FB41010010B58AB00C4607A86D
S214001F00012108F0F5F89DF822109DF820209DF894
S214001F1021309DF823000091CDE90310CDE901237F
S214001F200649206807F09BFA9DF82430079A044972
S214001F30206807F094FA0AB010BD00BF8041010087
S214001F409E41010010B548680C4604F015FA00F1F1
S214001F50FF03B3F5FF7F024606D92068064A08212C
S214001F60BDE8104007F0BABA044B0549188020684F
S214001F70BDE8104007F073BAB741010068210020A1
S214001F80E441010002281FB50C4613D1486804F04E
S214001F90EFF9011C18BF0121104B186807F0C8FEA6
S214001FA010F5007F08D10E4A2068082107F096FA3F
S214001FB004B010BD0021EFE707EE900AFAEECF7AE4
S214001FC0022317EE902A0A2101A807F0B7FA01AA01
S214001FD00449206807F043FAEAE700BFBC43002044
S214001FE09C3F0100C63F0100F8B5074648680C460E
S214001FF004F0BEF90F4B032F06461D7803D1A068E8
S21400200004F0B6F9C5B20021012003F0C5FE30B9D0
S214002010094A20680821BDE8F84007F05FBA07487B
S214002020002332462946006807F085FE08B1044AB8
S214002030EFE7F8BD801F002067420100BC43002088
S214002040934201001FB5104B18680C4608F08FFA33
S21400205010F5007F06D10D4A2068082107F03EFAE9
S21400206004B010BD07EE900AFAEECF7A022317EE00
S214002070902A0A2101A807F061FA01AA04492068FB
S21400208007F0EDF9ECE700BFBC430020653F010018
S214002090C63F010038B548680C4D0C4604F06CF994
S2140020A041B2286808F066FA28B120680849BDE8F9
S2140020B0384007F0D4B9286808F05FFA05490246A8
S2140020C02068BDE8384007F0CAB900BFBC4300200E
S2140020D0024201001F420100064B10B518680C466C
S2140020E008F04BFA044902462068BDE8104007F0A5
S2140020F0B6B900BFBC4300201F4201002DE9F843DB
S2140021004868234E234F0C4604F032F98046A068F8
S21400211004F02EF98146E0681F4C04F029F90225E8
S21400212090FBF5F508F03BFA064408F038FAB042A2
S214002130206803D3BDE8F84307F0EFBD07F0EDFDD8
S21400214000222068012107F04BFD5FFA88F1206825
S21400215008F071F839882068002207F0DBFD284671
S21400216001F060FF206807F0D8FD002220680121FA
S21400217007F036FD5FFA89F1206808F05CF8002267
S2140021803988206807F0C6FD284601F04BFFCCE7EB
S214002190404B4C00801F0020BC43002010B58C2212
S2140021A00C46054800210FF09CFA21460120BDE8A8
S2140021B01040FFF7BBBD00BFAC20002010B50C6878
S2140021C008F0EDF9034902462046BDE8104007F046
S2140021D046B900BF5E91010010B548680C4604F091
S2140021E0C7F808F0DEF9246840B908F0D8F90649BF
S2140021F002462046BDE8104007F031B908F0CFF996
S21400220002490246F5E700BF2D4201004B4201009D
S214002210012838B50C4608DD4D681C4903222846BF
S2140022200FF02CFA50B91A4B1870194B1B7823BBB9
S21400223018492068BDE8384007F011B9042216494D
S21400224028460FF01BFA30B9114B01221A70134BB7
S214002250134A1A60E9E70322124928460FF00EFADD
S21400226020B90B4B02221A700F4BF1E720680F4A79
S2140022707021BDE8384007F031B9012B01D10C4977
S214002280D7E7022B01D10B49D3E738BD7B430100CA
S2140022900819002073430100524301000019002072
S2140022A0200000204F74010004190020574301004D
S2140022B07F4301008C43010010B508460A4986B0EA
S2140022C08C684B780A780494CC8803948C880294A3
S2140022D091F903400194897800910068034907F05A
S2140022E0BEF806B010BD00BF200000200843010065
S2140022F038B54868114D0C4604F03AF82870A068C6
S21400230004F036F86870E06804F032F8A8702069C7
S21400231004F032F8E870606904F02AF8A880A06932
S21400232004F026F8E880E06904F022F82146A86068
S2140023300120BDE83840FFF7BFBF00BF20000020E7
S2140023402DE9F84307464868DFF868900D4604F024
S2140023500FF886B20224A6F10208BC420CDB124B30
S2140023609B783BB9114A124812881249006801232B
S21400237008F082F801200FE055F8240003F0F8FF7B
S21400238008EB0403B3F5FC7FC0B207D30A4A2868FB
S214002390052107F0A3F80020BDE8F88333194B4465
S2140023A0013403F8020CD8E77721002048100020FB
S2140023B0BC430020500E0020BB4501000846034ADF
S2140023C0034912880068002302F0FEBA4810002075
S2140023D0500E002010B50C46FFF7B2FF28B121467C
S2140023E00120BDE81040FFF7E9BF10BD70B50446F8
S2140023F00D46FFF7A5FF58B1686803F0B9FF82B233
S214002400131928680349023BBDE8704007F027B857
S21400241070BD00BFD845010070B548680D4603F092
S214002420A7FFB0F5FC7F034606D928680C4A0621AC
S214002430BDE8704007F052B80A490B4C897882B262
S214002440228029B909480A490068012308F014F8CF
S214002450228828680749BDE8704007F000B800BF2A
S2140024609D4501007721002048100020BC43002035
S214002470500E0020AF4501000846034A0349127873
S2140024800068002302F0A0BA6E0000202E00002094
S2140024902DE9F84307464868DFF85C900D4603F0E0
S2140024A067FF86B20224A6F10208BC420CDB114B81
S2140024B011491A78114B186807F0C2FF2946012007
S2140024C0BDE8F843FFF7D8BF55F8240003F050FFE7
S2140024D008EB04033F2BC0B206D92868084A05213A
S2140024E0BDE8F84306F0FABF33194B44013403F84D
S2140024F0020CDAE76E0000202E000020BC4300200D
S2140025002645010070B548680C4603F031FF4028A8
S214002510034606D920680A4A0621BDE8704006F040
S214002520DDBF084B084D0949C2B218682A7007F08B
S21400253087FF2A7820680649BDE8704006F08FBFFE
S2140025409D450100BC4300206E0000202E000020A8
S214002550AF45010038B500200C46096803F06EFB55
S214002560B0B12168012003F017FC88B1606803F061
S214002570FFFE084B81B2186807F018FE054603F008
S2140025800DF92A4620680449BDE8384006F067BFC2
S21400259038BD00BFBC4300204445010070B5002094
S2140025A00C46096803F04AFB00284DD0216801203C
S2140025B003F0F2FB002847D06668244D2449002328
S2140025C0032230462B706B700FF058F8B0B9A87025
S2140025D0A6681F49032230460FF050F8E8B9E870A5
S2140025E01C4B1A49186807F044FF034620B32068BE
S2140025F0194A5021BDE8704006F070BF0422174902
S21400260030460FF03BF810B90123AB70E0E7144AF0
S2140026102068502106F062FFDAE704220F493046B0
S2140026200FF02CF810B90123EB70D9E70C4A20689C
S214002630502106F053FFD3E7D4E901232068094967
S214002640BDE8704006F00BBF70BD00BF77210020CC
S214002650BC430100BC430020DF430100496C01007D
S214002660C04301000F44010013B50C460120096861
S21400267003F092FB78B1606803F07AFE80B2B0F5A2
S214002680007FADF8060008D94FF400730D4A2068A5
S214002690542106F023FF02B010BD0B4B0B491868FF
S2140026A00DF1060207F0EEFE28B1094A2068552112
S2140026B006F014FFEFE7BDF806200649206806F08E
S2140026C0CEFEE8E753450100BC4300200919002070
S2140026D0784501008F45010007B502AA4FF4007344
S2140026E022F8023D044907F0CDFE022808BF00206C
S2140026F003B05DF804FB00BF0919002037B5134B83
S21400270000934868124B01930C4603F031FE114DBE
S214002710003018BF01202870A06803F029FE0E4B79
S2140027202A780E49003018BF0120187002AB03EB60
S214002730800003EB820250F8083C52F8082C206810
S21400274003B0BDE8304006F08ABE00BF6433010027
S2140027503F910100DC230020CC2300202744010009
S2140027602DE9F04F5B4B1B7895B004460E463BB9FF
S214002770594A3068512106F0B1FE15B0BDE8F08F19
S214002780486803F0F5FD8146B06803F0F1FD032CC0
S214002790804618DDF06803F0EBFD071C18BF012724
S2140027A01FFA88F0183003F04FFB824603F06CFBEC
S2140027B04A4D044648B90121286807F081FE504674
S2140027C003F07AFBD9E70027EAE700F118011FFAC1
S2140027D088F2286807F059FEE082B9F1000F73D03E
S2140027E00AAA0121286807F053FE9DF828302375B1
S2140027F08046002F59D040F20243ADF81830062329
S2140028008DF81A30364B93E807000DF11C0989E85D
S2140028100700E38A6360002706AB0DF1380BFA5C0D
S2140028202272414622462868059307F038FE226841
S2140028304BF827200137032F059BF0D1224641464F
S214002840286807F02FFE0DF1400B002723684BF891
S214002850043FE18A59F8273028685A4601379847D6
S214002860032FF3D1139B0393129B0293119B0193A7
S214002870109B00931B493068DDE90E2306F0EFFD40
S21400288000274146286807F01BFEEFB114220021FE
S21400289020460EF026FF8023A373E38AA3B9124ACC
S2140028A03068522106F01AFE89E70146224628685B
S2140028B007F0F8FD07460028E3D12246E18A28689B
S2140028C007F0F6FD0746DCE75146084803F035FBFF
S2140028D053E700BFCC2300209F440100BC430020E8
S2140028E098430100D54401000A4501008C430020AE
S2140028F073B5134B00934868124B01930E4603F0D2
S21400290037FD041CB06818BF012403F031FD0E4BE0
S214002910051C18BF01252A462146186807F0E5FD64
S21400292002AB03EB840403EB850554F8082C55F83A
S214002930083C0649306802B0BDE8704006F08FBD1E
S214002940E84501001D6C0100BC430020474401001F
S2140029500B4B1B7810B50C4633B92068094A512139
S214002960BDE8104006F0BABD074B0848198802F0CB
S214002970F1FE20680649BDE8104006F070BD00BFB5
S214002980DC230020F245010048100020500E0020F5
S2140029902846010010B548680C4603F0E9FC044BD5
S2140029A00449186002462068BDE8104006F057BD8E
S2140029B0AC230020A443010070B5064686B04868E4
S2140029C00C4603F0D5FC85B20A2D06D9114A5221D1
S2140029D0206806F083FD06B070BD022E10DDA068EC
S2140029E003F0C6FC80B200900B482B4603AA0121D8
S2140029F0006807F089FDA84204D0084A5321E7E79B
S214002A000020F0E700232A4603A9206801F0DCFF37
S214002A10E1E700BF5B440100BC43002079440100AD
S214002A2070B5002304240225012650F823201278CE
S214002A30542A15D007D8492A0BD0522A0ED0012086
S214002A400BE00123F1E7722A08D0742A08D0692A1D
S214002A50F5D1CE54002BF4D0002070BDCD54F9E74C
S214002A60CC54F7E70B46034A03491278186806F079
S214002A70F6BC00BF98200020754601002DE9F04105
S214002A804868174F0C4603F073FC0022C3B2D1B25D
S214002A9057F8211031B92068124A1121BDE8F041DB
S214002AA006F01CBD0132D1B28B42F0D20E4E0F4D55
S214002AB030682B700122114607F092F82B780C4AEA
S214002AC057F82310306807F003FB0A4A0A491080BB
S214002AD003462A782068BDE8F04106F0C0BC00BF77
S214002AE064100020BD460100BC4300209820002052
S214002AF0FD430000801F0020DD4601000B4B10B593
S214002B0018680C4607F010FBC30706D52068084A6D
S214002B101221BDE8104006F0E1BC064B20681A887A
S214002B200549BDE8104006F09ABC00BFBC43002033
S214002B3045460100801F00206A46010070B54868BF
S214002B400D4603F015FC0C4B044681B2186807F0DE
S214002B5064F9A3B230B12868084A1121BDE8704074
S214002B6006F0BCBC184601F0CBFD29460120BDE8A6
S214002B707040FFF7C3BF00BFBC430020A84601005B
S214002B8070B5084C0D68206807F062FB06462068A2
S214002B9007F08FFB3246034603492846BDE87040DF
S214002BA006F05DBCBC430020914601002DE9F041D3
S214002BB080460D460120096803F0EEF850B3164C27
S214002BC06F682668B8F1020F1CDD1449A8680EF07D
S214002BD04EFFB8B9384603F0CBFBC1B2304607F01B
S214002BE02AFB206807F034FB0D4B06461870206859
S214002BF007F05FFB324603460A492868BDE8F04105
S214002C0006F02DBC384603F0B7FB01B2304607F09D
S214002C1038FBE6E7BDE8F081BC43002039470100F9
S214002C20000B0020914601002DE9F7430F46264C85
S214002C302649386806F013FC6946206807F01EFB34
S214002C409DF800307BB3012B25D10726DFF88C904A
S214002C50DFF88C8001252A464946386806F0FFFBD7
S214002C6001220321206806F0BBFFE9B2206807F0C6
S214002C70E2FA0022B8F80010206807F04BF80EF0D1
S214002C80C7FCC0B20A2810D00D280ED07128F6D185
S214002C900F4A202101E00F4A2121386806F01EFC69
S214002CA003B0BDE8F083FC26D0E7012203212068AC
S214002CB0013506F095FFEBB29E42CCD20649386845
S214002CC006F0CDFBECE700BFBC430020094801003E
S214002CD06C4801004B4801007B4801005E4801003B
S214002CE0801F0020064B10B518680C4607F059FBED
S214002CF0044902462068BDE8104006F0B0BB00BF9D
S214002D00BC4300208446010038B501200C46096803
S214002D1003F042F870B1084B60681D6803F028FBAA
S214002D200146284607F03AFB21460120BDE8384018
S214002D30FFF7D8BF38BD00BFBC43002070B5486859
S214002D400C4603F015FB0546A06803F011FB0C4B80
S214002D50C6B2EDB229463246186807F025FB014692
S214002D6038B933462A4620680649BDE8704006F062
S214002D7076BB2068044ABDE8704006F0AFBB00BFD3
S214002D80BC4300201F470100F141010038B54868E8
S214002D900C4603F0EDFAC5B2281C18BF012007F058
S214002DA0A0FA054B054A20680549002D08BF1A46BB
S214002DB0BDE8384006F053BB643301003F91010084
S214002DC03C46010013B50C46201D6946FFF728FE59
S214002DD030B10F4A2068162106F080FB02B010BD05
S214002DE09DF800308DF804309DF801308DF80530E0
S214002DF0084B01A9186807F0B7F9074B074A0849B6
S214002E00002808BF1A46206806F029FBE6E700BF40
S214002E10E9470100BC430020F7410100F1410100F1
S214002E20F847010013B50C460120096802F0B4FF0C
S214002E3048B16946201DFFF7F3FD30B1114A2068FE
S214002E40162106F04BFB02B010BD9DF800308DF841
S214002E5004309DF801308DF805300B4B01A9186839
S214002E6007F0A1F918B9094B9DF800201A70084B15
S214002E70084A0949002808BF1A46206806F0EFFAF3
S214002E80E1E700BFE9470100BC430020480E0020F0
S214002E90F7410100F14101005047010070B50023E1
S214002EA08AB0CDE9043306460D4606930124B442A3
S214002EB033DBBDF81030ADF81C30BDF81230ADF87D
S214002EC01E30BDF81430ADF82030BDF81630ADF821
S214002ED02230BDF81830ADF82430BDF81A30ADF801
S214002EE02630164B07A9186806F094FF00BBBDF8FD
S214002EF026100391BDF824100291BDF81E10019112
S214002F00BDF820100091BDF82230BDF81C200C49F9
S214002F10286806F0A4FA0AB070BD55F8240003F03D
S214002F2027FA04AB03EB4403013423F8020CBEE794
S214002F30044A2868182106F0D1FAECE7BC430020C2
S214002F4061470100A847010010B50D4B9B78012B87
S214002F500C4606D020680B4A1921BDE8104006F042
S214002F60BDBA486803F004FA074B81B2186807F048
S214002F70AAFA064902462068BDE8104006F06FBA75
S214002F8077210020BF470100BC430020D647010040
S214002F9010B548680C4603F0EBF9064B81B218688A
S214002FA007F094FA044902462068BDE8104006F08F
S214002FB056BA00BFBC4300203D470100F7B548683D
S214002FC00D4603F0D5F90646A86803F0D1F90024AB
S214002FD0CDE900040849074632462346086807F04C
S214002FE0E8F8CDE90074324623460449286806F01E
S214002FF036FA03B0F0BD00BFBC4300200547010011
S2140030000B46024A0249186806F029BA091B002036
S214003010FF480100224B23482DE9F0474FF4806219
S2140030200D4600211A800EF05CFB1E4EDFF88480F1
S214003030002440F2FF37BC4206D128681A4A122103
S214003040BDE8F04706F04ABA0EF0E2FAC0B2431EF8
S214003050DBB2FD2BEFD80A28A05502D140460EF071
S21400306049FB671CBBB2082B17D9DFF84C900F48FA
S21400307009EB0401A4F1080A0EF0CEFC68B906F8C4
S2140030800A0009F108000EF0FCFC094B29461880DE
S214003090BDE8F0470120FFF7B3BF3C46C9E700BFD5
S2140030A00C1F0020091B00209A48010090480100D0
S2140030B00A1F00208D480100011B002008B50B46A2
S2140030C0044A1868044906F0CAF9044B00221A801C
S2140030D008BD00BF09490100FF4801000C1F002081
S2140030E030B585B0012302280D468DF80F300CDD73
S2140030F00DF10F01A86800F079FD30B90F4A286875
S214003100032106F0EBF905B030BD07F048FA0C4C89
S2140031102060686803F02CF90A4B9DF80F201860B1
S21400312012B92268801A18601B6822682868D118AD
S2140031300091054906F093F9E5E700BF1249010042
S214003140141F0020101F00202449010073B51546E7
S214003150064607F024FA00210446304606F0C5FD70
S2140031600095034622460349034806F078F902B064
S21400317070BD00BF4A4901008D4901002DE9F341A9
S214003180124D2868884606F082FD0446286806F038
S21400319077FD0746286806F065FD064607F0FFF946
S2140031A00B490C4AD8F80050002C14BF14460C46A5
S2140031B0002F08BF0A46CDE90042334602460649BC
S2140031C0284606F04CF902B0BDE8F081BC4300206A
S2140031D03A51010091510100854A0100F8B50020DE
S2140031E00C46096802F02AFD10B36068114D03F022
S2140031F0BFF811490646A0680EF039FC0746286855
S21400320006F037FD3A1C18BF01220C4B28683146E1
S21400321006F01AFD30B12068094A4021BDE8F840A2
S21400322006F05CB921460120BDE8F840FFF7A6BFCE
S214003230F8BD00BFBC430020D04A0100A5440000F2
S214003240D44A010010B500200C46096802F0F6FCCE
S21400325048B1054B186806F00CFD21460120BDE874
S2140032601040FFF78BBF10BDBC4300202DE9F04394
S214003270486885B00F4603F07BF8C6B2022E08D920
S214003280194A38680323102105B0BDE8F04306F05C
S21400329025B9164B182404FB0634204606F013FD09
S2140032A00546204606F018FD00218146204606F019
S2140032B01CFD804607F073F90D490E4A3C68002D48
S2140032C00CBF15460D46B9F1000F18BF0A46CDE9EA
S2140032D001260095024643460749204606F0BFF8F9
S2140032E005B0BDE8F08300BFF7490100181F0020B5
S2140032F0915101003A5101003C4A010070B500208E
S2140033000C46096802F09AFCE0B1606803F030F8F9
S2140033100546003018BF012006F072FC58B10A4975
S2140033200A4A2068002D08BF0A4603230849BDE85C
S214003330704006F094B82068064A1021BDE8704038
S21400334006F0CCB870BD00BFD5790100815E0100E3
S2140033509A490100B6490100F7B50C4600200968F5
S21400336002F06CFC002838D0606803F001F8C5B2A3
S214003370022D08D91A4A20680323102103B0BDE89D
S214003380F04006F0ABB8A06802F0F2FF154906461A
S214003390A0680EF06CFB144B0746186806F069FC34
S2140033A0124800953A1C31464FF0180618BF012205
S2140033B00F4B06FB050006F071FC38B10D4A20687D
S2140033C0402103B0BDE8F04006F088B82146012051
S2140033D003B0BDE8F040FFF749BF03B0F0BD00BF43
S2140033E0F7490100D04A0100BC430020181F002006
S2140033F04D310000BB4A010010B500200C4609689C
S21400340002F01CFC08B3606802F0B2FFC3B2022BE5
S21400341007D920680D4A03231021BDE8104006F0A6
S2140034205DB80B4A182000FB032006F043FC28B1C9
S21400343021460120BDE81040FFF718BF2068054A66
S2140034401021BDE8104006F049B810BDF74901004C
S214003450181F0020DA490100034AD36C013308BF65
S2140034600123D364704700BFAC20002010B5486825
S2140034700C4602F07DFF044B21680022BDE8104098
S2140034801A6002F04BBC00BFA423002010B50C4607
S214003490486802F06DFF216802F040FC014B024ACA
S2140034A01A6010BDA423002088430020F0B54868A9
S2140034B085B00C4602F05CFF184B194A1949136098
S2140034C01860194B266810F0010F14BF1A460A46FA
S2140034D000F0180410F0020F08BF0B46082CC0F3CB
S2140034E0800719D01149124D102C18BF29460E4CD2
S2140034F00C4D10F0200F14BFA446AC4610F0400F41
S21400350008BF2C46CDE90071CDE902C40949304612
S21400351005F0A5FF05B0F0BD0749E8E788430020A1
S214003520A42300203A51010091510100F14A010004
S214003530E44A0100FA4A0100E84A010010B548686A
S2140035400C4602F015FF054B22681860011C18BFD8
S21400355001210720BDE8104001F03EBF9C2100205D
S2140035600B46034A03491268186805F078BF00BF87
S214003570740A0020514B010010B548680C4602F052
S214003580F7FE044B21461860BDE810400120FFF707
S214003590E7BF00BF740A002010B548680C4602F06A
S2140035A0E7FE084B81B2186806F09DFE064A074BF8
S2140035B00749002818BF1A462068BDE8104005F0E5
S2140035C04EBF00BFBC430020A8420100064D0100CC
S2140035D00E4D010073B548680D4602F0C9FE04465C
S2140035E001F0F4FE0E2808D13CB12A4A28681D21B5
S2140035F002B0BDE8704005F071BF01F0E7FE042898
S2140036000AD1254E306806F0E9FA8CB901282DD883
S2140036102E68224C224D1FE001F0D8FE0E28F0D076
S2140036202968002002F00AFB0028EAD102B070BD2B
S21400363010F002022AD11B4B3068198806F072FB84
S214003640194B01221A70164A144B2E68002C0BBF19
S21400365015461D461C46144606F0A1FF234600905C
S2140036602A461249304605F0FAFEDFE722460121D7
S214003670306806F0B5FA0C4B1C7001F0A7FE0E2859
S214003680C6D12246214602F0F9FADCE72E68044C41
S214003690024DE1E7954B0100BC4300203F9101003D
S2140036A064330100801F002085210020BF4B0100ED
S2140036B02DE9F04F486887B00D4602F059FE224BC0
S2140036C0044602464FF0FF31186806F075FD90BBC1
S2140036D01E492F681E4D1F4B1F4E14F0010F14BFBE
S2140036E08846A84614F0020F14BF8946A94614F06F
S2140036F0040F14BF8A46AA4614F0080F14BF8B4660
S214003700AB4614F0100F18BF0D46204614F0800F7D
S21400371008BF1E4602F07EFBCDE901B5CDE9036089
S214003720CDF800A04B4642460C49384605F097FEB9
S21400373007B0BDE8F08F0A4A28681F2107B0BDE829
S214003740F04F05F0CBBE00BFBC43002091510100F6
S2140037503A510100824C01007E4C0100854C01006C
S214003760F54C010010B548680C4602F001FEC1B2E7
S2140037700031226818BF01210220BDE8104001F088
S2140037802BBE10B548680C4602F0F2FDC1B20031FF
S214003790226818BF01210120BDE8104001F01CBEC0
S2140037A010B548680C4602F0E3FDC1B2003122684D
S2140037B018BF01210420BDE8104001F00DBE000036
S2140037C02DE9F04148680D4602F0D2FD044601F0AE
S2140037D0FDFD042806D02868194A0721BDE8F041F7
S2140037E005F07CBE174E002201213068E4B206F0D8
S2140037F0F7F937468CB9DFF86080134E98F800303A
S21400380093B100223188386806F08CFA60B1002245
S2140038100121386806F0E4F9F0E70B4930680988BA
S21400382000231A4606F06AFA084A094B286809492E
S214003830002C08BF1A46BDE8F04105F010BE00BFD8
S2140038405B4C0100BC430020801F00203F9101001C
S21400385064330100724C0100852100202DE9F04FF1
S2140038600A6887B082460E460B20012102F006FA4F
S214003870002800F0E580706802F07AFD00F07F0412
S214003880042C059000F20481DFF87492DFF874B21D
S214003890864F1ED173685B78532B16D010D8482BF2
S2140038A000F0FF80824BDFF860829B69814D13F049
S2140038B0010F814B08BF1D46BAF1020F1EDD0EE058
S2140038C0682B00F0EE80732BECD1DFF840827A4D47
S2140038D002E0DFF83482794DBAF1020F0CDDB068F1
S2140038E002F046FDBAF1030FC9F8000004D0F068F4
S2140038F002F03EFD8BF80000012C12D900220121B7
S214003900386806F06DF900F069FC694A936903F0BF
S2140039103003202B1FBF936923F0300343F01003BE
S2140039209361674A674B68493068042C18BF134692
S2140039309BF8002002F0030251F822206349CDE9EB
S21400394000322B46224605F08AFD00F077FB03F096
S2140039500FFC059BD9F800209BF8001013F0800F91
S21400396006465B4B386818BF002306F03DF9012277
S2140039700023C9F80000CDE900221146184603F0DE
S2140039805DFF544B00221A709A46631E0593059BF2
S214003990032B09D8DFE803F002575B5F4E4A136932
S2140039A023F00403136130BF304603F0E5FB03F059
S2140039B0DFFB0646386806F01CF9834618B99AF805
S2140039C00030002BE3D0304603F0D6FB0022114631
S2140039D00B2001F001FD01220023CDE90023114652
S2140039E0184603F02BFF9AF800203C493C4B3D4814
S2140039F0002A0CBF1A460A46BBF1000F18BF0B463A
S214003A00D9F800100092CDE9013122462B463649FE
S214003A1005F025FD9AF8003063B1012C1DD9334816
S214003A2000F000FB0DF0F4FD0DF0F2FD0DF0F0FDE2
S214003A300DF0EEFD2E4E2F4D33789BB9012C1ED87F
S214003A4007B0BDE8F08F012003F03CFCACE7012096
S214003A5003F05CFCA8E7C047A6E70DF0D9FD0028F8
S214003A60FBDBE7E700222988386806F05BF90028C8
S214003A70E4D000220121386806F0B2F8DCE71E4BDD
S214003A801B78DB07DCD507B0BDE8F04F00F0F6BBCF
S214003A901A4A30682346012107B0BDE8F04F05F00A
S214003AA01DBDDFF86C80034D06E700BFBC43002059
S214003AB000300E40FC6101007A9101009D3A010041
S214003AC0824C01007E4C0100644B01001F4D01003A
S214003AD059340000741F002000ED00E0184D01006E
S214003AE01C4D01006E4D0100424D010090D00300B8
S214003AF085210020801F0020010B0020784D01004A
S214003B00641F0020601F0020D17300006574000051
S214003B1055740000012870B506460D46174C0ADDA0
S214003B20486802F025FC164B022E186003D0A868E1
S214003B3002F01EFC207021782A68003118BF01218F
S214003B400B2002F09BF8B8B10D4E0E480E4B3268B3
S214003B502178006806F048F80346306000B9207007
S214003B6022780A49286802F00302BDE8704051F83E
S214003B702220074905F073BC70BD00BF601F0020FF
S214003B80641F0020BC43002059340000644B010031
S214003B90744B010010B501F019FC0B28044618D12F
S214003BA00C4B186806F025F898B1002211462046FE
S214003BB001F012FC084B09491A78094B09481B68A2
S214003BC002F00302BDE8104051F82220064905F035
S214003BD046BC10BDBC430020601F0020644B0100A3
S214003BE0641F0020874B01005A4D010038B505467A
S214003BF00C4601460D480DF00FFF18B9022323703E
S214003C00012006E029460A480DF006FF10B90120FB
S214003C10207038BD294607480DF0FEFE08B9207012
S214003C20EEE7022323700020F3E700BF5C4B0100A1
S214003C30604B0100D04A010037B5002305464868AE
S214003C400C46CDE9003302F093FB022D009012DD06
S214003C5001A9A068FFF7CAFF30B90D4A20681C21E9
S214003C6005F03CFC03B030BD032D04D0E1680948E4
S214003C700DF0D2FE50B1002368468DF8053001F0F5
S214003C80E1FE2168062001F0F1FFEBE70123F3E7F0
S214003C90124901009F4D01002DE9F0410C4600211C
S214003CA086B00646084601F0C9FF0146A8B10021C5
S214003CB0084601F0C3FFE8B9606802F059FB804689
S214003CC0E06802F055FB0DF106010746A068FFF715
S214003CD08DFFB0B9344A192106E00E2001F0AEFF80
S214003CE00028E4D1314A1E21206805F0F7FB06B013
S214003CF0BDE8F0810021012002F04EF80028F1D046
S214003D00DAE70DF107012069FFF770FF10B9284ABE
S214003D101A21E9E7052E43DD606902F029FB051C40
S214003D2018BF0125062E3CD0A06902F021FB00300A
S214003D3018BF01209DF806308DF80C309DF807302E
S214003D408DF814301B4B8DF8160000210E208DF8D0
S214003D5015501D70CDF80880049701F06FFF0546DA
S214003D6030B9226801210E2001F088FF0028BED05D
S214003D701149124809880068002302AA05F0D5FFF9
S214003D8003460028B3D00E4A20681B2105F0A6FB88
S214003D90002DACD1226829460E2001F06FFFA6E761
S214003DA000250020C6E700BF004C0100D54B0100EF
S214003DB01C4C01008D210020801F0020BC430020E9
S214003DC0364C010038B50868094D05F01BFB002489
S214003DD055F8342007482146013405F05AFB0A2CD2
S214003DE0F6D12146044A0348BDE8384005F063BBD7
S214003DF0CC4E0100BC4E0100C24E01000F4B37B541
S214003E0018680C4606F07FFF0D4B25681C680D49A8
S214003E100D4A14F0010F14BF0B46134614F0020FA0
S214003E2014BF0C4614460094002818BF0A460749DB
S214003E30284605F014FB03B030BD00BFBC4300208D
S214003E40681F00203F910100643301003F4F0100CE
S214003E5070B506460C460120096801F09DFFC8B102
S214003E60606802F085FA022E054604DDA06802F0BE
S214003E707FFA094B1860094B186845B1064906F0E9
S214003E803EFF21460120BDE87040FFF7B7BF06F0B1
S214003E9038FFF6E770BD00BF681F0020BC43002057
S214003EA0074B08681B780A2B05D8064A064952F8BD
S214003EB0332005F0D4BA1A46044905F0D0BA00BF3C
S214003EC02C000020CC4E01006F4E0100924E0100E7
S214003ED070B505460C460120096801F05DFF18B371
S214003EE0606802F045FAC0B20A280AD9252120687F
S214003EF00E4A05F0F3FA21462846BDE87040FFF763
S214003F0061BF0B4B0B4E307003EBC0000A4B416891
S214003F10186806F000FF08B10B23337021462846C8
S214003F20BDE87040FFF7BCBF70BD00BF244F010066
S214003F30CC4E01002C000020BC43002010B5486881
S214003F400C4602F015FA084BC1B2186806F0DDFE02
S214003F50064A074B0749002808BF1A462068BDE8EE
S214003F60104005F07CBA00BFBC430020F1410100C0
S214003F70F7410100DE35010038B548680C4602F00E
S214003F80F7F90546A06802F0F3F9084BC2B22946D5
S214003F90186806F0BCFE064B064A0749002808BF0C
S214003FA01A462068BDE8384005F059BABC430020E0
S214003FB0F7410100F1410100DE35010013B50C4662
S214003FC002A94FF6FF7321F8023D104B186805F062
S214003FD03AFFBDF80610022913D80D4B1B780A2BA2
S214003FE00FD80C4A206802EBC302536803EBC103E8
S214003FF009491A79094B53F8222005F030FA02B025
S21400400010BD0749206805F02AFAF8E7BC430020EF
S2140040102C000020CC4E0100504E0100A84D01009F
S2140040205C4E010038B5044606F0B9FA054606F0BF
S214004030B6FA401BA042FAD338BD0000024A136904
S2140040409B04FCD5704700BF0000014008B504F093
S214004050ABFF04F0A7FFBDE8084004F09FBF0000D8
S21400406070B5354B1A7892B0002A62D0334A12786F
S214004070D2075ED500241C70314E324D04F094FFFA
S214004080314804F0A3FF314804F0A0FF736AB3FB85
S214004090F5F2402105FB123302A82D4A0DF068FC0C
S2140040A002A804F093FFD6E9003213444021B3FB84
S2140040B0F5F202A805FB1233264A0DF059FC02A8B9
S2140040C004F084FF244B254A1B88402102A80DF0EB
S2140040D04FFC02A804F07AFF1C4804F077FF204843
S2140040E004F074FFD6E900320A251A44B2FBF5F351
S2140040F005FB1323C3EB4312C3EB82035B005BB2E7
S2140041000093202201235021142004F081FF726ABC
S214004110B2FBF5F305FB132303EB83035B005BB2F3
S21400412000932022234650214C2004F071FF04F017
S21400413039FF12B070BD00BF2D000020010B00201B
S214004140AC200020A0860100654F01009D3A0100CA
S214004150754F0100854F0100801F0020954F01001C
S214004160A14F0100034B1B78DB0701D504F02ABCE6
S214004170704700BF010B0020034B1B78DB0701D5FF
S21400418004F038BC704700BF010B002008B50020C3
S21400419004F000FC0120BDE8084004F0FBBB000072
S2140041A00D4A13B5D2F8283423F0C0030024C2F811
S2140041B02834062223461146CDE90044052003F0A4
S2140041C03DFB0722CDE9004423461146052003F0B7
S2140041D035FB02B010BD00BF00A0004008B5FFF7D9
S2140041E0D5FFFFF733FFBDE80840FFF7D9BF000053
S2140041F013B50123134C02220621052003F06AFBA7
S214004200012302220721052003F064FB2146062035
S21400421002F028F92146072002F024F9012406229C
S21400422023461146CDE90044052003F007FB07228C
S214004230CDE9004423461146052003F0FFFA02B0FC
S21400424010BD00BF4943000008B504F0EBFB04F0C6
S21400425087FE012004F0CCFC012304220721022063
S21400426003F038FB02F0F0F80349012002F0FAF8F8
S214004270BDE80840FFF7BCBF4943000008B504F09E
S2140042808FFE034B01221A70BDE80840FFF7B0BF4F
S2140042902D0000200021024B0846196001F03EBDAB
S2140042A0A4230020024B00210120196001F036BD36
S2140042B0A4230020002170B5084601F0BFFC08B317
S2140042C00021042001F068FD0446D8B9014602200A
S2140042D001F062FD184D20B122460121286805F044
S2140042E07FFC164C28682188013189B205F095FDBF
S2140042F048B9238801332380114E337873B9114BA4
S21400430001221A7070BD002323802188286805F0DA
S21400431084FD0028F0D023880133F5E700222188A9
S214004320286805F0FFFC0028E9D000220121286853
S21400433005F056FCE1E700BFBC430020801F0020CC
S214004340852100202D000020012838B502D11C4B05
S214004350187038BD06281CD11A4B1B4D1B684FF42D
S2140043607A742BB906F01BF9B0FBF4F02860F0E77E
S21400437006F015F9B0FBF4F02C68001BB0F57A7F58
S21400438003D9BDE83840FFF785BFBDE83840FFF7E2
S21400439089BF0728DDD10D4B0D4D1B684FF47A748D
S2140043A0002BDFD006F0FBF8B0FBF4F02C68001B07
S2140043B0B0F57A7FCDD8BDE83840FFF77BBF00BFA9
S2140043C0741F0020982114426C1F00209C21144268
S2140043D0701F0020034B1B88184400B280F30800AF
S2140043E0C0B270476821002008B50020FFF7BAFE6B
S2140043F00120BDE80840FFF7B5BE00002DE9F041FA
S2140044001F4F4D681F4B0E4639789D4294BF0325BB
S2140044100025A942044610D01B4B1A7804F0E2FE91
S2140044203946804620463D7005F015FF0246B8B175
S21400443073681649164805F012F800231A461549FF
S214004440204605F0A7FC01224FF0FF31114805F089
S214004450ADFC02280DD11049104805F000F8FEE723
S214004460B6F912104145A8BF4146204605F009FF9F
S214004470E3E70B4A536F01335367BDE8F08100BF93
S2140044804A100020FFC99A3B000B0020F04F0100A5
S2140044902E5001009C2000203A5001005A50010086
S2140044A0AC200020002170B50446084601F0C6FB8B
S2140044B0B0B11E4B1B6833B1012220461146BDE841
S2140044C0704005F08DBB06F06AF8194B1860204660
S2140044D005F0C8FB174B1860174B01221A7070BD09
S2140044E000F074FF0C281ED1144B154A154D802180
S2140044F0996716682B6D33442B65134B15681A683D
S214004500521B1A6032B9114BBDE870401960114653
S21400451000F062BF0E490F4B096820460122BDE835
S214004520704005F091BB0C4BD7E700BFAC230020D2
S214004530802100207C2100208421002000A0004053
S2140045409C0D1442AC200020E44200206CA00044E5
S214004550E0420020A544000074210020312908B55F
S21400456096BF0B4B0B4B53F821300B480A460B49B2
S21400457004F075FFBFF34F8F09490A4BCA6802F46F
S214004580E0621343CB60BFF34F8F00BFFDE700BF71
S214004590B45301004C410100C34F0100B04F01006D
S2140045A000ED00E00400FA05F8B50021194E0846B3
S2140045B001F044FB33785BB350B3174B1B783BBB1F
S2140045C0164B1F7827BB164C206805F0C2FE154A0E
S2140045D03770536C01335364C207054602D5206812
S2140045E005F0C8FEEB0313D500220121206805F074
S2140045F0F7FA0021206805F0AEFE0B4B1B783BB1A6
S2140046000A4B206819880022BDE8F84005F08ABBEE
S214004610F8BD00BF7E1F00209421002086210020C8
S214004620BC430020AC20002085210020801F0020F5
S214004630064B1A784AB100221A70054B054A1B68C9
S21400464012680549054804F00ABF70478421002017
S2140046507C21002080210020665001009650010039
S21400466038B5164B1A7842B300221A70144BD3E9A9
S2140046700001002500F0007454EA05021C4609D02B
S214004680104B1B789D0705D502460B460E480F4972
S21400469004F0E5FED4E90023002102F08050014337
S2140046A00BD008490978890703D50949064804F05C
S2140046B0D6FE084A136A0133136238BD6A21002009
S2140046C060210020010B0020A85201006852010062
S2140046D0B1520100AC200020054B1A783AB10022F6
S2140046E01A70044B04491A68044804F0B8BE7047B0
S2140046F08C210020781F0020C8510100DE510100E7
S214004700074B81B21980074B01221A70064B1B78A3
S21400471023B1064B0022186805F004BB704700BFA3
S214004720801F00202D00002085210020BC43002093
S214004730014B01221A707047742100201F4BF7B5F9
S2140047401C68054604B124681D4E1E4F00F03EFE50
S214004750062809D10023009331881B4B386822466F
S21400476005F0CFFA03B0F0BD00F030FE0728F1D018
S214004770164B38681B783188022B0AD1002235B9CF
S214004780134B1B680092224605F0C1FAEAE713466F
S214004790F8E7012B0AD1002235B90E4B1B680092B0
S2140047A0224605F0B1FADDE71346F8E70023224675
S2140047B003B0BDE8F04005F0A1BA00BFA423002076
S2140047C0801F0020BC4300206C2100200819002018
S2140047D0041900200019002038B5254B1A78002A45
S2140047E044D000221A70234B1C6800F0EFFD03280B
S2140047F01FBF214A136803F1FF33136000F0E6FD84
S214004800092807D01D4B1B7823B91D4B1D48198856
S21400481000F0A0FF1C4B1B689C4215D11B4B186870
S214004820003018BF0120FFF789FF044670B1174A11
S21400483017491368C4B200250133C1E90045136067
S214004840BDE8384001F032BA0120ECE700F0BEFDCA
S2140048500A280BD10F4B1868FFF7E4FB0E4B2246D5
S21400486018680121BDE8384005F0BAB938BD00BF68
S2140048707421002050210020A0210020DC230020ED
S21400488048100020500E00209821002048210020CB
S214004890602100204C0E0020BC430020014B01226A
S2140048A01A7070474D210020014B01221A70704784
S2140048B04C2100202DE9F043304B1A7885B0002AB1
S2140048C029D000221A702E4B2E4F1B782E4E2F4DBD
S2140048D02F4C13F0020F16D03B68326828689B1ADC
S2140048E0002847D02B4A2C49002B08BF0A46D4E99B
S2140048F00089CDE902892949019009680091284874
S214004900284904F0ACFD3B68336000232B6000228E
S2140049100023C4E90023244B1A78002A27D000225B
S2140049201A70174B214D1B78214E224C13F0020FA4
S21400493016D0214B1B789BB12F683368E7B1164A17
S2140049401449002B18BF0A46D4E90001CDE902013C
S2140049501A490197096800911148194904F07FFD2A
S214004960002333602B6000220023C4E9002305B037
S214004970BDE8F083134ABAE7124AE5E74D21002066
S214004980010B002050210020982100204821002003
S21400499060210020E7500100F1410100BC23002007
S2140049A040510100EF5001004C210020442100201E
S2140049B0902100205821002076210020541000204D
S2140049C046510100844801002DE9F043074689B0AE
S2140049D016461C460D4631B92BB9284909B0BDE824
S2140049E0F04304F03CBD384604F00CFD002C39D0F2
S2140049F094F80D90DFF8A8802148277B94F90E30B4
S214004A00E18A226894F80FC094F811E0B9F1000F1B
S214004A1008BF404694F81380CDF8188094F81280AA
S214004A20CDF81480247C0093CDE90304154B16487A
S214004A30CDE901CE002F08BF0346144804F029FD37
S214004A4055B11348134F0CF055FE2C46631B9E427F
S214004A500DDC7D200CF066FE0F4809B0BDE8F04383
S214004A600CF0D0BE31460D4804F013FDE8E714F80C
S214004A70011B38460CF03EFEE8E700BFF552010089
S214004A8091510100EB520100F0520100FB5201006F
S214004A90635301006D5301004E9A01005C53010000
S214004AA03A51010010B51A4801F087FA70BB184851
S214004AB001F067FA044601F0E7F9034670B1027D9B
S214004AC0013A062A1CD8DFE802F01E040E1114175D
S214004AD0170010480021DA8AFFF776FF2046BDE867
S214004AE0104001F0E9B900210B48F4E700210B481B
S214004AF0F1E700210A48EEE700F118010948EAE765
S214004B0000210948E7E700210848E4E710BD00BF98
S214004B108C4300207E530100875301009053010010
S214004B2099530100A2530100AB53010075530100D5
S214004B302DE9F341274C284D23882A889A4238D9F4
S214004B40264AD05C264F274EDFF8A0808DF8070057
S214004B509DF80730013BDBB2FD2B27D805F01FFD83
S214004B603B68C01A3368984220D3002333603B600A
S214004B702A8823889DF807009A4284BF0133238041
S214004B800A2808D00CF0CEFD9DF807300D2B02D178
S214004B900A200CF0C7FD01220DF10701404601F086
S214004BA0ADFA002809DD10480CF0A4FD02B0BDE8FF
S214004BB0F0810CF02DFDC0B2C4E723882A889A4203
S214004BC004D9064AD05C8DF80700C1E70CF020FD3A
S214004BD0C0B2F8E70C1F00200A1F0020091B0020A7
S214004BE0141F0020101F00208D4801008420002084
S214004BF0174B2DE9F0410D461968002300EA010223
S214004C001343044621D0DFF8548002F0B1FA98F836
S214004C100060092E074613D805F0C1FC98F800304E
S214004C200C4A02EB061602EB0312C2E900450133FA
S214004C30B06088F800303846BDE8F04102F09CBA13
S214004C40054A136801331360F5E7BDE8F08100BF3D
S214004C5038210020E8420020402100203C2100208E
S214004C602DE9F0431946994685B00646104690460B
S214004C70FFF7BEFF002209F0040313431EBFA04B3C
S214004C8001221A7008F001020023134315D03046A3
S214004C9005F06DFC9B4A136807EE900A013313601B
S214004CA0FAEECF7A984B10F5007FC3ED007A40F00D
S214004CB08B819649964804F0D2FB08F48032002394
S214004CC013431FBF934A136F0133136708F4004260
S214004CD0002313431FBF8F4AD36E0133D36608F0F9
S214004CE01002002313431FBF8A4AD36A0133D362DC
S214004CF008F02002002313431FBF864A136B0133BC
S214004D00136308F040020023134310D0814A824BFD
S214004D1001271F70936A3B44936200F0EFFC7F4BC1
S214004D20196821B17E4B3A46304604F08DFF08F4F0
S214004D3000320023134310D0304605F0E4FF01A9EB
S214004D40002800F04E81304605F0E3FF28B99DF8B4
S214004D5004207449744804F082FB08F0040200231F
S214004D60134302D0304600F0C5FD42F20870002121
S214004D7000EA080201EA0903134343D0664B002207
S214004D801A706A4B1B782BB1694BDB7813B130462F
S214004D9005F094FB08F400720023134306D05D4A26
S214004DA0936B30460133936300F03CFD08F4806259
S214004DB00023134306D0574AD36B30460133D363E0
S214004DC000F030FD08F400520023134306D0514A89
S214004DD0136C30460133136400F024FD08F480722F
S214004DE00023134306D04B4A536B304601335363BC
S214004DF000F018FD08F008020023134302D03046E6
S214004E0000F028FE08F00202002313430DD0414AAA
S214004E10536D01335365474B01221A7005F0BFFBF3
S214004E20454B1B68C01A454B186008F48052002397
S214004E30134300F0E580002211460E2000F0CCFA65
S214004E4008F08042002313431FBF324A136E01331B
S214004E50136608F00052002313431FBF2D4AD36D7C
S214004E600133D36508F00062002313431FBF294AAD
S214004E70936D0133936508F095520023134326D0B3
S214004E802F4BC3E900892F4B01221A702E4A136854
S214004E900133136000F00AFF08F4001200231343E6
S214004EA01FBF1C4A93680133936008F40002002376
S214004EB013431FBF174A13690133136108F00072CA
S214004EC0002313431FBF134A93690133936108F00D
S214004ED0A8620023134351D01C4A1D4BC3E9008926
S214004EE01368013313601B4B01221A7008F480020A
S214004EF0002313431FBF074AD3680133D3602BE058
S214004F007E1F0020882100207000002093420100B0
S214004F10CA4F0100AC20002086210020AC230020D0
S214004F20A5440000D54F0100E14F0100CC2300202E
S214004F30772100208C210020BC230020781F002031
S214004F40602100206A210020482100204421002002
S214004F50582100204C21002008F0807200231343C3
S214004F601FBF314A53690133536108F08062002342
S214004F7013431FBF2C4AD3690133D36108F4802240
S214004F800023134302D0304600F09AFC08F40022B7
S214004F900023134307D0244A136800210133304608
S214004FA0136000F007FC08F48014002554EA05039B
S214004FB007D01D4A5368012101333046536000F084
S214004FC0F9FB05B0BDE8F08317EE902A02230A210C
S214004FD001A804F0B3FA01AA1449154804F03FFAF0
S214004FE06BE6304605F0CBFD00287FF4B6AE9DF8A4
S214004FF00430AA2B7FF4B1AE304605F0BDFDACE61A
S2140050000C4B1B78002B3FF41BAF00210E2000F04A
S21400501015FE00283FF414AF08F4E06200231343A3
S2140050207FF409AF0CE700BFAC200020C63F0100AC
S214005030CA4F01008D2100202DE9F04F284C23781F
S214005040ADB0EBB102F094F8A0220646254904A8BC
S2140050500CF023FB23780393234B002530461F6870
S21400506025701D6002F088F804AE039B9D420ADBA3
S21400507037B100970A231D4A1D48362104F02EFA40
S2140050802DB0BDE8F08FD6E900890024C4F12002D7
S214005090A4F1200328FA04FA09FA02F229FA03F323
S2140050A04AEA020A4AEA030A29FA04FB5AEA0B0306
S2140050B002D101351036D8E70123A34008EA0300E1
S2140050C009EAE37150EA010307D00A4BB26853F8C5
S2140050D024300949094804F0C2F90134D6E700BF74
S2140050E03C210020E842002040210020165201000A
S2140050F056520100780A0020EB51010010520100C0
S2140051002DE9FF417E4B01225A647E4BDC6C03A8DE
S214005110240E02F0C5FC8E2C1CD87B49D1F8B000BA
S21400512040F00403C1F8B030784B4FF050121A60CC
S2140051301A631A66C3F89020C3F8C020C3F8F0209C
S214005140C1F8B000704AD36A23F07F0343F020030F
S214005150D36201E08F2CF5D99DF80D306C4F6D4C65
S214005160012B01BF6C4A136843F0040313606B4BBA
S21400517000251D6002F004FC804602F0FBFB0123C4
S2140051803B61FFF761F866480CF03CFB65496648F2
S21400519004F014FD4FF400732A466449206005F0BD
S2140051A06EF9B0F5007F264600D0FEE74FF00111FD
S2140051B0206805F0EBF85E4B5E4A19785E4B206877
S2140051C053F8211004F084FF5C4B5D49188020687A
S2140051D005F062F948A3D3E90023CDE900234FF098
S2140051E0FF334FF0FF32206804F0E3FF2A464FF00B
S2140051F0FF31206804F0E0FF524B20681B88ADF8B2
S2140052000C3003A904F0CFFF4F4B2068022203A9FD
S2140052101A7004F0A9FF0A214C4800F07DFE00B980
S214005220FEE718F4803F18D0BB69306813F0010F12
S2140052300CBF7324682404F0DCFC454A454B464901
S214005240002818BF13462246444804F008F92B46A7
S2140052502A462946306804F0C7FCFEF701FF40489E
S2140052600CF048FA3F4B404940484FF4807200F03B
S21400527039FF3F4B3F4A1B88B3F5FC7F39D33E4B83
S2140052803E491A78306805F0DBF83D490220FEF703
S214005290A1F93C490120FBF70FF83B490520FAF736
S2140052A06DFF3A490220FBF7D3F839490220FDF793
S2140052B045FC38490220FEF78DF9374B01221A705B
S2140052C0FFF736FC00F0D2F8FEF764FCFFF784FA2E
S2140052D0FFF7F0FAFFF7E6FBFFF7C2F9FFF7ACFEC1
S2140052E0FFF7A6F9FEF7BCFEFFF75EF9FFF7F4F945
S2140052F0E6E79B540133BFE7EF7FFE7F0400000024
S21400530000000E40B081E00F00400E4000A00040BC
S21400531000300E40BC43002064310E40B40AC64341
S21400532096510100E9430000FC0C0020A421002057
S21400533098200020FD43000064100020801F0020FD
S214005340D5430000AE4F0100480E00208C430020DD
S214005350184D01001C4D0100A55101006E4D0100C5
S2140053608D48010074000020821F00208420002049
S21400537048100020500E00206E0000202E00002056
S214005380040B00200C0B0020100B0020240B002028
S2140053902C0B0020340B002085210020034619B971
S2140053A0064A074804F09AB8012901D1054AF8E7E9
S2140053B0022901D1044AF4E7704700BF9E5001005D
S2140053C0B3500100B6500100CC500100014B1878D4
S2140053D0704700BFA8230020114B10B51C7884B975
S2140053E078B101241C700F4B18700F4B19704AB916
S2140053F00E4B1B7813F0020F0D4B18BF1A460D4BC1
S2140054001A6010BD0C4B02F11000194652F8044BFE
S21400541043F8044B8242F9D1064B1960F1E700BF0E
S214005420AB230020A923002050100020010B0020F1
S2140054307C910100D0430020C043002070B50A4D87
S21400544006460FCD90B001AC0FC40FCD0FC40FCDE4
S2140054500FC495E8070084E8070010AB03EB860648
S21400546056F83C0C10B070BD00910100654B1A78E0
S2140054702DE9F341002A4AD000221A70624B634A93
S214005480634E1B7810783778624A002B14BF0446A8
S2140054900024874215680DD1A3B1002D37D02046D1
S2140054A0FFF7CCFF5C490246284602B0BDE8F04153
S2140054B003F0D5BF002F40F08A80002B00F09D80BF
S2140054C00DB913E085B12046FFF7B8FF8046384691
S2140054D0FFF7B4FF074605F062F83B4600904246E9
S2140054E04E49284603F0BBFF33789BB94C4B1868EF
S2140054F004F0BFFB012C44D122464A4B1988484B86
S214005500186804F007FC484B32781A70347002B002
S214005510BDE8F0815A1E012A04D8414B186804F0F1
S214005520FCFBE7E7042B05D13D4B0021186804F08F
S21400553005FCDFE70A2B11D84FF4CD62DA40D243E0
S21400554012F0010514D00C2BD0D00D2BD2D1344B39
S21400555000220121186804F043FBCBE70B2BF2D1A5
S2140055602F4800231A461946006804F03DFBC1E7A1
S2140055702B4B186804F07DFB2C4B1D60FFF78EF953
S214005580B8E7022C01D10022B7E7042C05D1244B42
S2140055900121186804F0D2FBB5E7032C01D0052CD6
S2140055A002D1FFF7C5F8AEE7062C01D00A2C03D1CE
S2140055B01E4B01221A60F4E7E31F012BA3D8194BF8
S2140055C01988174B0022186804F0ACFB9BE7002DE7
S2140055D09DD0174C174A002B18BF1446FFF72EFF16
S2140055E006463846FFF72AFF2346CDE90060124AF2
S2140055F00121284603F072FF89E7002D87D00C4C66
S214005600ECE700BFAB23002050100020A9230020A9
S214005610A8230020D04300203C91010047910100C0
S214005620BC430020801F0020AA230020A0210020C9
S2140056306661010002740100669101002DE9F043E5
S21400564085B0FFF7C3FE0D28244D07D10122114671
S214005650286804F04AFF05B0BDE8F0836A460121D9
S2140056602868DFF8948004F013FF1D4B1A789DF825
S2140056700030814612B99A1F012A29D8194C1A4FB0
S214005680226813753A8852B1184E2868316804F0BB
S214005690FCFE3A883368121A03443A803360144B8F
S2140056A022681B88D3824946286804F0FBFE20B196
S2140056B01422002120680CF014F8226828680021C3
S2140056C004F0F6FED8F800100A4800F036FCC2E7F0
S2140056D0D8F8000000F0F0FBBDE700BFBC43002098
S2140056E075210020D0230020D8230020B0230020DE
S2140056F0DA2300208C430020D423002008B50E4B6C
S214005700DB78012B16D1FFF761FE0D2812D00B4B6C
S2140057101B787BB90A4B18880A4B1880183000F0A3
S21400572093FB094B186000F0AFFB084B1860084B62
S2140057301830186008BD00BF77210020CC23002059
S214005740DA230020D8230020D4230020D0230020F2
S214005750B023002070B50D4B044618680C4B9B78A0
S2140057600D4633B90A4601232146BDE8704004F0D1
S21400577083BE00230A46214604F07EFE054B2D1A02
S2140057801D80054B04441C6070BD00BFBC43002058
S21400579077210020B4230020B8230020034BDB78B9
S2140057A0012B04BF024B1880704700BF77210020F2
S2140057B0DA23002038B5044601200D46FEF7DCFC4F
S2140057C0134B0121197085B1124A13680B441360FC
S2140057D02046114A04F07FFD20460F4A002104F0BF
S2140057E07DFDBDE83840FFF75FB80C4A136801330B
S2140057F0136029460A4A204604F06DFD29462046D5
S214005800074A04F06BFDBDE8384000F04FBA00BF11
S2140058102D00002090210020541000205021002050
S214005820BC2300202DE9FF411F4BDE780746A6BBB0
S2140058301E4B1B784BB36A46022104F029FE8046B5
S214005840182000F001FB054600F01EFB0446F8B1E8
S2140058509DF800300375C68202464146384604F07D
S21400586021FE20B11422314620460BF03AFF104BA1
S2140058701B789B0706D5284600F036FB29460D48C0
S21400588000F05BFB284600F017FB04B0BDE8F08193
S214005890094A936C01339364F4E7084B1B78002B9A
S2140058A0F3D1FFF7CBFEF0E777210020752100202B
S2140058B0010B00208C430020AC200020CC230020CD
S2140058C0094A38B5536E094D013353662A8852B1DA
